:020000040800F2
:1000000000100020B907000821100008291000087E
:1000100000000000000000000000000000000000E0
:100020000000000000000000000000003110000887
:10003000000000000000000039100008D10F000887
:10004000050800080508000805080008050800085C
:1000500005080008C90F0008050800080508000881
:10006000050800080508000805080008050800083C
:10007000050800080508000805080008050800082C
:100080000508000805080008000000000508000831
:10009000050800080508000805080008050800080C
:1000A000050800080508000805080008D10E00082A
:1000B0000508000800000000050800080000000016
:1000C0005FF808F180B500AF1A4B1A4A1268012197
:1000D0000A431A60174B174A5168174A0A405A6078
:1000E000144B144A1168154A0A401A60114B114A00
:1000F0001168134A0A401A600E4B0E4A5168114AA1
:100100000A405A600B4B0B4AD26A0F218A43DA62CB
:10011000084B084A116B0C4A0A401A63054B054A02
:10012000526B01218A435A63024B00229A60BD46FA
:1001300080BDC046001002400CB8FF08FFFFF6FE6D
:10014000FFFFFBFFFFFFC0FFACFEFFFF80B582B0EB
:1001500000AF021CFB1D1A70044B00221A70034BE7
:10016000FA1D12781A70BD4602B080BD021002401E
:1001700080B582B000AF021CFB1D1A70FB1D1B78FE
:10018000002B06D0074B074A126801210A431A6068
:1001900005E0044B034A126801218A431A60BD46F8
:1001A00002B080BD0010024080B582B000AF021CDA
:1001B000FB1D1A70FB1D1B78002B07D0084B084A4B
:1001C0001268802149040A431A6005E0044B044A7E
:1001D0001168044A0A401A60BD4602B080BDC0469C
:1001E00000100240FFFFFFFE80B584B000AF7860D2
:1001F0000023FB60084B5B68FB60FB6803229343B2
:10020000FB60FA687B681343FB60034BFA685A6033
:10021000BD4604B080BDC0460010024080B588B025
:1002200000AF78600023FB610023BB6100237B618A
:1002300000233B610023FB60654B5A680C2313408D
:10024000FB61FB69042B07D0082B09D0002B30D1B0
:100250007B68604A1A6030E07B685E4A1A602CE076
:100260005B4B5A68F0239B031340BB61584B5A68A1
:1002700080235B0213407B61BB699B0C0233BB6133
:100280007B69002B05D1BB69534A5A437B681A60CE
:1002900013E04F4BDA6A0F23134001333B614D48A3
:1002A000396900F03DFF031CBA695A437B681A6044
:1002B00003E07B68474A1A60C046454B5A68F02302
:1002C0001340FB61FB691B09FB61444AFB69D318BE
:1002D0001B78DBB2FB607B681A68FB68DA407B68DE
:1002E0005A603B4B5A68E023DB001340FB61FB691B
:1002F0001B0AFB61394AFB69D3181B78DBB2FB6030
:100300007B685A68FB68DA407B689A60304B1A6BEE
:1003100080235B00134003D17B68314ADA6010E030
:100320002B4B5A688023DB01134005D17B689B6807
:100330005A087B68DA6004E07B689B689A087B68EF
:10034000DA60234B1A6B4023134003D17B68254AA4
:100350001A6103E07B68802212021A611C4B1A6B3F
:100360001023134003D17B681A4A5A6103E07B686B
:100370001A687B685A61164B1A6B0323134004D129
:100380007B689A687B689A611EE0114B1A6B0323A5
:100390001340012B04D17B681A687B689A6113E0D3
:1003A0000B4B1A6B03231340022B04D17B68802272
:1003B00012029A6108E0064B1A6B03231340032BC9
:1003C00002D17B68034A9A61BD4608B080BDC04631
:1003D0000010024000127A0000093D0000000020D9
:1003E000809FD5001280000080B582B000AF786099
:1003F0000A1CFB1C1A70FB1C1B78002B06D0084B38
:10040000074A51697A680A435A6106E0044B044A74
:1004100052697968C9430A405A61BD4602B080BD3D
:100420000010024080B582B000AF78600A1CFB1C4F
:100430001A70FB1C1B78002B06D0084B074A9169E9
:100440007A680A439A6106E0044B044A9269796823
:10045000C9430A409A61BD4602B080BD0010024007
:10046000B0B582B000AF021C3960FB1D1A70FB1DD5
:100470001B787F2B32D93049FB1D1B781A1C0F23A8
:100480001340083B98082C4AFB1D1B781C1C0F23AB
:100490002340083B9B0806339B00D3185B68FA1D7A
:1004A0001278141C03222240D200FF24251C954000
:1004B0002A1CD2431A403B689C01FF231C40FB1DB1
:1004C0001B781D1C03232B40DB00251C9D402B1C8F
:1004D0001A43831D9B00CB185A6029E0174BFA1D65
:1004E000127852B292081549F81D007840B280087F
:1004F000C03080004158F81D0078041C03202040C3
:10050000C000FF24251C8540281CC04308403968D2
:100510008C01FF210C40F91D09780D1C0321294095
:10052000C900251C8D40291C0143C0329200D150C6
:10053000BD4602B0B0BDC04600ED00E000E100E005
:1005400080B582B000AF78607A680E4B9A4201D9CC
:10055000012312E00C4B7A681202120A013A5A6027
:1005600001235B42181C0321FFF77AFF064B002290
:100570009A60054B07221A600023181CBD4602B082
:1005800080BDC046FFFFFF0010E000E080B500AF77
:10059000FFF798FD0020FFF7D9FD0020FFF724FEAC
:1005A0000120FFF7E5FD0020FFF7FEFD042000F02D
:1005B0009DFDFA235B01181CFFF7C2FFBD4680BDFD
:1005C00080B582B000AF8023DB02181C0121FFF749
:1005D0000BFF3B1C40221A603B1C01221A713B1C82
:1005E00000229A713B1C01225A713B1C0022DA71D5
:1005F000194A3B1C101C191C00F0BCF9164B181CA6
:10060000402100F053FA80239B02181C0121FFF7C0
:10061000EBFE3B1C802292001A603B1C01221A71E7
:100620003B1C00229A713B1C01225A713B1C002288
:10063000DA719023DA053B1C101C191C00F09AF9A2
:100640009023DA0580239B00101C191C00F03CFA53
:10065000BD4602B080BDC0460004004880B58AB0E7
:1006600000AF80239B02181C0121FFF7BDFE8023F1
:10067000DB01181C0121FFF7D5FE9023DB05181CB8
:100680000221012200F02EFA9023DB05181C032121
:10069000012200F027FA3B1C083302221A713B1C8E
:1006A000083300225A713B1C083300229A713B1C0C
:1006B00008330122DA713B1C08330C221A609023A4
:1006C000DA053B1C0833101C191C00F053F93B1DC4
:1006D0001B221A703B1D00225A703B1D01229A708A
:1006E0003B1D181C00F0ACFC3B1C10339622920101
:1006F0001A603B1C103300225A603B1C103300224E
:100700009A603B1C10330022DA603B1C103300223D
:100710005A613B1C10330C221A610E4A3B1C1033E9
:10072000101C191C00F02CFA0A4B181C012100F0B7
:10073000D7FA084A084B101C191C012200F00EFBC6
:10074000044A064B101C191C002200F007FBBD4692
:100750000AB080BD0038014005010500070107000F
:1007600080B582B000AF786012E0C0460C4B181C18
:10077000802100F035FB031C002BF7D07B681B7831
:10078000074A101C191C00F0C9FA7B6801337B6012
:100790007B681B78002BE8D1BD4602B080BDC04607
:1007A0000038014080B500AFFFF7F0FEFFF708FF0B
:1007B000FFF754FFFEE7C0460C488546002103E0E2
:1007C0000B4B5B58435004310A480B4B42189A427A
:1007D000F6D30A4A02E0002313600432084B9A421F
:1007E000F9D300F011F8FFF7DDFFFEE7001000205D
:1007F000CC11000800000020100000201000002094
:100800001C020020FEE7000080B500AF1B4B1B4A16
:10081000126801210A431A60184B184A5168184A95
:100820000A405A60154B154A1168164A0A401A6068
:10083000124B124A1168144A0A401A600F4B0F4AB1
:100840005168124A0A405A600C4B0C4AD26A0F2176
:100850008A43DA62094B094A116B0D4A0A401A634E
:10086000064B064A526B01218A435A63034B00220E
:100870009A6000F00FF8BD4680BDC04600100240EF
:100880000CB8FF08FFFFF6FEFFFFFBFFFFFFC0FFF6
:10089000ACFEFFFF80B582B000AF00237B60002379
:1008A0003B60314B304A1268802149020A431A608A
:1008B0002D4B1A6880239B0213403B607B680133F9
:1008C0007B603B68002B04D17A68A023DB019A424D
:1008D000EED1254B1A6880239B02134002D00123DE
:1008E0003B6001E000233B603B68012B38D11F4B8C
:1008F00011221A601C4B1C4A52685A601A4B1A4A41
:1009000052685A60184B184A5168194A0A405A608E
:10091000154B154A5268882149030A435A60124B05
:10092000114A1268802149040A431A60C0460E4BDE
:100930001A6880239B041340F9D00B4B0A4A526873
:1009400003218A435A60084B074A526802210A432E
:100950005A60C046044B5A680C231340082BF9D147
:10096000BD4602B080BDC0460010024000200240DB
:10097000FFFFC0FF80B586B000AF7860396000230C
:100980007B6100233B610023FB6000237B6185E0EA
:100990007B690122101C9840031C3B613B681B686B
:1009A0003A691340FB60FA683B699A4273D13B682D
:1009B0001B79012B03D03B681B79022B38D17B6854
:1009C0009B687A6952000321081C9040021CD243A4
:1009D0001A407B689A607B689A683B685B79191C4F
:1009E0007B695B00081C9840031C1A437B689A6073
:1009F0007B689B889BB27A6992B20121081C904067
:100A0000021C92B2D24392B213409AB27B689A808F
:100A10007B689B889AB23B689B79191C7B699BB267
:100A2000081C9840031C9BB213439AB27B689A80BF
:100A30007B681B687A6952000321081C9040021CE5
:100A4000D2431A407B681A607B681A683B681B793E
:100A5000191C7B695B00081C9840031C1A437B68C7
:100A60001A607B68DB687A6992B252000321081C25
:100A70009040021CD2431A407B68DA607B68DA68D7
:100A80003B68DB79191C7B695B00081C9840031CE0
:100A90001A437B68DA607B6901337B617B690F2BCA
:100AA00000D875E7BD4606B080BDC04680B582B0AF
:100AB00000AF78600A1CBB1C1A80BB1C1A887B68BC
:100AC0009A61BD4602B080BD80B582B000AF78604B
:100AD0000A1CBB1C1A807B68BA1C12881A85BD468A
:100AE00002B080BD90B585B000AF7860BB1C1980A6
:100AF0007B1C1A700023FB600023BB607B1C1A78F0
:100B0000BB1C198807230B409B00111C99400B1C30
:100B1000FB60BB1C1B88DB089BB21A1CBB1C1B8820
:100B2000DB089BB2191C7B6808318900CB58B91CC3
:100B300008880721014089000F20041C8C40211CDB
:100B4000C94319407B6808329200D150BB1C1B88F6
:100B5000DB089BB21A1C7B6808329200D258FB68F3
:100B60001343BB60BB1C1B88DB089BB21A1C7B6851
:100B700008329200B968D150BD4605B090BDC0465C
:100B800080B58CB000AF786039600023FB62002331
:100B9000BB6200237B627B681B680122191C9143A6
:100BA0000A1C7B681A607B685B687B627A6A474BC9
:100BB00013407B623B689B687A6A13437B627B6865
:100BC0007A6A5A607B681B687B627A6A404B134082
:100BD0007B623B685A683B68DB681A433B681B6969
:100BE00013437A6A13437B627B687A6A1A607B6874
:100BF0009B687B627A6A374B13407B623B685B6918
:100C00007A6A13437B627B687A6A9A603B1C08337A
:100C1000181CFFF703FB7A682F4B9A4204D13B1C48
:100C200008339B69BB6203E03B1C08339B68BB62D3
:100C30007B681A6880231B02134014D0BB6A5A00D9
:100C40003B681B68101C191C00F06AFA031CFB624D
:100C5000BB6A5A003B681B68101C191C00F0A4FA00
:100C60000B1C7B6210E03B681B68B86A191C00F023
:100C700057FA031CFB623B681B68BA6A101C191CFC
:100C800000F092FA0B1C7B623B681B685A087B6A77
:100C90009A4202D8FB6A0133FB627B681A688023A0
:100CA0001B0213400AD0FA6A0F2313405B087B62D1
:100CB000FA6A0A4B1A407B6A1343FB62FB6A9AB2D8
:100CC0007B689A81BD460CB080BDC046FFCFFFFF58
:100CD000F3E9FFFFFFFCFFFF00380140F0FF0000D9
:100CE00080B582B000AF78600A1CFB1C1A70FB1C38
:100CF0001B78002B06D07B681B6801221A437B6897
:100D00001A6007E07B681B680122191C91430A1CCA
:100D10007B681A60BD4602B080BDC04680B582B017
:100D200000AF78600A1CBB1C1A80BB1C1B88DB054B
:100D3000DB0D9AB27B681A85BD4602B080BDC04605
:100D400080B582B000AF78607B689B8C9BB2DB057E
:100D5000DB0D9BB2181CBD4602B080BD80B588B0CB
:100D600000AFF860B960FB1D1A700023BB6100235F
:100D70007B6100233B610023FB61FB68FB61BB6877
:100D80009BB21B0A9BB2BB61BA68FF2313407B6115
:100D90007B690122111C99400B1C3B61BB69022B32
:100DA00003D1FB690433FB6105E0BB69032B02D16E
:100DB000FB690833FB61FB1D1B78002B06D0FB6928
:100DC000FA6911683A690A431A6006E0FB69FA6930
:100DD00012683969C9430A401A60BD4608B080BD2F
:100DE00080B584B000AF786039603B1C0F330022BF
:100DF0001A707B68DB693A68134004D03B1C0F33E0
:100E000001221A7003E03B1C0F3300221A703B1CB6
:100E10000F331B78181CBD4604B080BD80B586B06A
:100E200000AF786039600023FB6000237B61002302
:100E3000BB603B1C133300221A703B689BB21B0A39
:100E40009BB2BB603A68FF2313407B617B69012240
:100E5000111C99400B1C7B61BB68012B05D17B6881
:100E60001A687B6913407B610DE0BB68022B05D1DA
:100E70007B685A687B6913407B6104E07B689A68F1
:100E80007B6913407B613B681B0CFB60FB680122A4
:100E9000111C99400B1CFB607B68DA69FB681340EE
:100EA000FB607B69002B07D0FB68002B04D03B1C48
:100EB000133301221A7003E03B1C133300221A7013
:100EC0003B1C13331B78181CBD4606B080BDC046C2
:100ED00098B500AF304A314B101C191CFFF79EFF2C
:100EE000031C002B2AD02E4B1B885A1C91B22C4A73
:100EF00011801C1C284B181CFFF722FF031CDAB2C0
:100F0000284B1A55284B1B68002B08D0264B012272
:100F10001A60264B181C4021FFF7D6FD07E0224B34
:100F200000221A60214B181C4021FFF7BFFD1C4B0B
:100F30001B88052B02D91A4B00221A80164A1C4B1B
:100F4000101C191CFFF76AFF134A1A4B101C191CBE
:100F5000FFF764FF104A184B101C191CFFF75EFFC7
:100F60000D4A164B101C191CFFF758FF0A4AC023E4
:100F70009B00101C191CFFF751FF074A104B101C57
:100F8000191CFFF74BFF044A0E4B101C191CFFF7EE
:100F900045FFBD4698BDC04600380140050105002B
:100FA000100200201000002014020020000400485D
:100FB000070107000E0111000A0309001B010C00C4
:100FC000000301000401040080B500AFBD4680BDF0
:100FD00080B584B000AF3B1D0E4A03CA03C312881C
:100FE0001A800D4B1B68591C0B4A1160E1229200BC
:100FF00093420BD9084B1A68084B9A4206D9064B04
:1010000000221A603B1D181CFFF7AAFBBD4604B066
:1010100080BDC046C011000818020020E703000090
:1010200080B500AFBD4680BD80B500AFFEE7C046CD
:1010300080B500AFBD4680BD80B500AFBD4680BD68
:1010400080B584B000AF78600023FB607B689B783C
:10105000002B3CD0244B7A6812789208D2B2C0326E
:101060009200D358FB607B681B781A1C0323134043
:10107000DB00FF22101C9840031CDA43FB6813407E
:10108000FB607B685B789A01FF231A407B681B78C2
:10109000191C03230B40DB00111C99400B1CFA6840
:1010A0001343FB60104B7A6812789208D2B2C032B8
:1010B0009200F968D1500C4B7A681278111C1F22EB
:1010C0000A400121081C9040021C1A6009E0064AEF
:1010D0007B681B78191C1F230B400121994080233A
:1010E000D150BD4604B080BD00E100E080B582B0C3
:1010F00000AF78607B68042B06D1084B074A126862
:1011000004210A431A6005E0044B044A12680421D2
:101110008A431A60BD4602B080BDC04610E000E0C0
:10112000002934D00123002210B488422CD301249A
:101130002407A14204D2814202D209011B01F8E72F
:10114000E400A14204D2814202D249005B00F8E7E8
:10115000884201D3401A1A434C08A04202D3001B14
:101160005C0822438C08A04202D3001B9C08224347
:10117000CC08A04202D3001BDC082243002803D085
:101180001B0901D00909E3E7101C10BC70470028B7
:1011900001D00020C04307B4024802A140180290C9
:1011A00003BDC046190000000029F0D003B5FFF7C9
:1011B000B9FF0EBC4243891A1847C0467047C04663
:0C11C00041542B474D4D3D3F0A000000FC
:1011CC0000000000010203040102030406070809E1
:0400000508000000EF
:00000001FF
