:020000040800F2
:1000000000100020A1010008ED010008ED0100082A
:1000100000000000000000000000000000000000E0
:10002000000000000000000000000000ED010008DA
:100030000000000000000000ED010008ED010008D4
:10004000ED010008ED010008ED010008ED010008D8
:10005000ED010008ED010008ED010008ED010008C8
:10006000ED010008ED010008ED010008ED010008B8
:10007000ED010008ED010008ED010008ED010008A8
:10008000ED010008ED01000800000000ED0100088E
:10009000ED010008ED010008ED010008ED01000888
:1000A000ED010008ED010008ED010008ED01000878
:1000B000ED01000800000000ED0100080000000054
:1000C0005FF808F180B582B000AF78600A1CFB1CB5
:1000D0001A70FB1C1B78002B06D0084B074A51698D
:1000E0007A680A435A6106E0044B044A5269796807
:1000F000C9430A405A61BD4602B080BD00100240AB
:1001000080B582B000AF8023DB02181C0121FFF70D
:10011000D9FF3B1C40221A603B1C01221A713B1C78
:1001200000229A713B1C01225A713B1C0022DA7199
:10013000064A3B1C101C191C00F010F9034B181C3C
:10014000402100F0A7F9BD4602B080BD0004004880
:1001500080B582B000AFFFF7D3FF0E4B7B6002E0AB
:100160007B68013B7B607B68002BF9D10A4B181C34
:10017000402100F08FF9094B7B6002E07B68013B76
:100180007B607B68002BF9D1034B181C402100F0E9
:100190008FF9E2E7FFFF0A0000040048FFFF0000BC
:1001A0000C488546002103E00B4B5B58435004315B
:1001B0000A480B4B42189A42F6D30A4A02E000233F
:1001C00013600432084B9A42F9D300F011F8FFF79C
:1001D000BFFFFEE700100020CC0400080000002054
:1001E000000000200000002000000020FEE70000CA
:1001F00080B500AF1B4B1B4A126801210A431A60ED
:10020000184B184A5168184A0A405A60154B154A4B
:100210001168164A0A401A60124B124A1168144AB1
:100220000A401A600F4B0F4A5168124A0A405A603E
:100230000C4B0C4AD26A0F218A43DA62094B094AF5
:10024000116B0D4A0A401A63064B064A526B012194
:100250008A435A63034B00229A6000F00FF8BD46B0
:1002600080BDC046001002400CB8FF08FFFFF6FE3C
:10027000FFFFFBFFFFFFC0FFACFEFFFF80B582B0BA
:1002800000AF00237B6000233B60314B304A126893
:10029000802149020A431A602D4B1A6880239B0271
:1002A00013403B607B6801337B603B68002B04D1CB
:1002B0007A68A023DB019A42EED1254B1A6880238D
:1002C0009B02134002D001233B6001E000233B600E
:1002D0003B68012B38D11F4B11221A601C4B1C4A62
:1002E00052685A601A4B1A4A52685A60184B184A98
:1002F0005168194A0A405A60154B154A52688821BC
:1003000049030A435A60124B114A1268802149047A
:100310000A431A60C0460E4B1A6880239B041340A0
:10032000F9D00B4B0A4A526803218A435A60084BA2
:10033000074A526802210A435A60C046044B5A6871
:100340000C231340082BF9D1BD4602B080BDC04636
:100350000010024000200240FFFFC0FF80B586B0C1
:1003600000AF7860396000237B6100233B6100238C
:10037000FB6000237B6185E07B690122101C9840B3
:10038000031C3B613B681B683A691340FB60FA68D9
:100390003B699A4273D13B681B79012B03D03B68C0
:1003A0001B79022B38D17B689B687A695200032144
:1003B000081C9040021CD2431A407B689A607B68FC
:1003C0009A683B685B79191C7B695B00081C984044
:1003D000031C1A437B689A607B689B889BB27A698E
:1003E00092B20121081C9040021C92B2D24392B2F8
:1003F00013409AB27B689A807B689B889AB23B686C
:100400009B79191C7B699BB2081C9840031C9BB20A
:1004100013439AB27B689A807B681B687A695200A2
:100420000321081C9040021CD2431A407B681A60CA
:100430007B681A683B681B79191C7B695B00081C88
:100440009840031C1A437B681A607B68DB687A69F2
:1004500092B252000321081C9040021CD2431A4061
:100460007B68DA607B68DA683B68DB79191C7B693A
:100470005B00081C9840031C1A437B68DA607B69A8
:1004800001337B617B690F2B00D875E7BD4606B051
:1004900080BDC04680B582B000AF78600A1CBB1C2E
:1004A0001A80BB1C1A887B689A61BD4602B080BD69
:1004B00080B582B000AF78600A1CBB1C1A807B68D4
:0C04C000BA1C12881A85BD4602B080BD2F
:0400000508000000EF
:00000001FF
